:10047200E4752980752825F527F526FFFE7DC07CC9
:100482004112082C120A9AEF24FE604914700302EA
:1004920005611470030205632403600302056812F8
:1004A2000A1A20E8127F017E00120B2220E808308F
:1004B200E8FDD20012067E30E90302056B7F017E61
:1004C20000120B2230E90302056B30E9FDC2001273
:1004D200067E02056B75000175A24020FA297F0194
:1004E2007E00120B2220FA1F30FAFDE4F521C3E54B
:1004F20021940474809480500EE52190000093FFB3
:100502001209E1052180E720E8297F017E00120B14
:100512002220E81F30E8FDE4F521C3E521940474AC
:10052200809480500EE52190000093FF1209E105AE
:100532002180E720E9337F017E00120B2220E92986
:1005420030E9FDE4F521C3E52194047480948050E0
:1005520018E52190000093FF1209E1052180E78050
:1005620005750004800375000220ED0D7F017E00F9
:10057200120B2220ED0330EDFD20A70302048602B8
:020582000486ED
:08082C008F258E248D238C2200
:1008340090FE027480F0438E01438E04759850E458
:10084400F587759A5075AC107584107F04FEFDFC15
:10085400AB29AA28A927A826120404EC12032CC049
:1008640004C005C006C0077F007E247D747C49ABAC
:1008740025AA24A923A822120186D003D002D001DC
:10088400D00012028FA804A905AA06AB07E4FFFE54
:100894007D807C4712009112036AAD07AC06AF0459
:0908A400AE058FD68ED7438E10ED
:0108AD002228
:1009E100E50024FE601214601A14602224037028AA
:1009F1008F993099FDC299228F9BE59A30E1FB5383
:100A01009AFD228FADE5AC30E1FB53ACFD228F8521
:090A1100E58430E1FB5384FD2271
:100A75008B1C8A1D891EAB1CAA1DA91E1203EB60C7
:100A850013051EE51E7002051D14F91203EBFF1276
:050A950009E180E222EE
:030023000205844F
:10058400C0E0C0D075D000C000C004C005C006C023
:01059400075F
:1005950020980302066FAF99AEA2EE2440605B245B
:1005A50040600302066DE500FD7C006403700AEF00
:1005B500645A7041050002066DED64044C700CEF41
:1005C500645A7005050002066D802AE500FDC39496
:1005D5000574809480401ED3ED940B7480948050F4
:1005E5001474002500F8A6070500E500640B706F7C
:1005F500750003806A750003806EE500FD7C007060
:1006050009BF240405008060805BED64014C700C1B
:10061500BF520405008051750001804CED64024C09
:100625007043BF2C060500F500803DE50024FD6004
:10063500111460161460171460202404702A8F00AA
:100645008026AE0005007400800A8F00801AAE0077
:10065500050074002EF8A607800E8F00750000D2E5
:0A06650000C2AC8003750000C298CB
:0F066F00D007D006D005D004D000D0D0D0E032D4
:03008B00020B8ADB
:0D0B8A00C0E0E5AC30E00353ACFED0E0323B
:0F0AEF00D2947F047E00120AFED2957F047E000F
:0B0AFE00EF1FAC0670011E4C70F622CA
:100B2200EF4E600F7D70ED60031D80FAEF1F70F0D5
:030B32001E80ED35
:010B3500229D
:100B5C00120AEFC294120AFAC2957F047E00020AAE
:010B6C00FE8A
:100B3600C295120AFAC294120AF1D2947F047E0078
:030B4600020AFEA2
:100B4900C294120AF1C295120AFAD2947F047E0065
:030B5900020AFE8F
:0B0B9700120AEFC295120AFAC2942263
:0E0B6D00120AEFA2949201120AFAC295A20196
:010B7B002257
:020AD400AD076C
:100AD6007B08EB6013ED339294120AF1C295120A69
:080AE600FAED25E0FD1B80EA9A
:010AEE0022E5
:100AB800E4FD7B08EB6012120AF8ED25E0FDA29434
:0B0AC800E4334205C2951B80EBAF0534
:010AD3002200
:100A9A0020A0037F002220A1037F012220A2037F3E
:0E0AAA00022220A3037F032220A4027F042245
:0F0B0900021A339B0218299D050D2AB640114090
:100A1A00120B5C7FC0120AD4120B6D401FE4F52240
:100A2A00C3E5229405748094805011740D2522F830
:0F0A3A00E6FF120AD4120B49052280E4020B36A4
:10090000E4F522F523E50F54106012E51724E1FF0A
:10091000E43516FEE43515FDE435148013E517249F
:100920001FFFE51634FFFEE51534FFFDE51434FF27
:10093000FCE47B04FAF9F8120404E412032C7B6F44
:100940007A127903784212028F12036A8E128F1381
:010950002284
:1008AE00E4F523F524851223851324E50F5410ACAB
:1008BE0023AD246018E41203317B6F7A127903782A
:1008CE0041120186E4FBFA796178C38016E41203C3
:1008DE00317B6F7A1279037841120186E4FBFA7943
:1008EE0061784312009512036A8F178E168D158C40
:0108FE0014E5
:0108FF0022D6
:10095100E4F512F513120B5C7FC1120AD4120B6D70
:10096100401FE4F522C3E522940574809480501160
:10097100120AB874082522F8A607120B490522802D
:10098100E4120B36AF0853073FEFFE7C00E4250964
:09099100F513EC3EF5120208AE6C
:1007A400120951300232E517240AF517E43516F51B
:1007B40016E43515F515E43514F5147FE07EA57DB2
:1007C400017C00AB17AA16A915F8D31204614042A4
:1007D4007517CC7516558034C3E517940AF517E5DB
:1007E400169400F516E5159400F515E5149400F536
:1007F400147FCC7E557D017C00AB17AA16A915F891
:10080400C3120461500C7517E07516A575150175B2
:100814001400120900E512F50D85130E750F4175CC
:080824001011751140020A1ABF
:10067E00120951300035750FB1E5172414F517E442
:10068E003516F516E43515F515E43514F5147FE039
:10069E007EA57D017C00AB17AA16A915F8D312040E
:1006AE006140457517CC7516558037750F41C3E5FA
:1006BE00179414F517E5169400F516E5159400F544
:1006CE0015E5149400F5147FCC7E557D017C00ABAE
:1006DE0017AA16A915F8C3120461500C7517E07508
:1006EE0016A5751501751400120900E5122440F5C2
:1006FE000D85130E751011751140120A1A8005E53D
:0A070E000820E70512095180F622C9
:0E0B7C0081838587898B8D80828486888A8C10
:090B1800072A0000120705061669
:10099A00C2B200C2B600D2B200E4FEEEC39408743A
:1009AA008094805011EF1392B3EFC313FFD2B600B5
:1009BA00C2B6000E80E5E4FEEEC39408748094800B
:1009CA005011ED1392B3EDC313FDD2B600C2B600B7
:0609DA000E80E5C2B20030
:0109E00022F4
:10002600C2B200C2B600D2B200E4FDEDC3940874B9
:100036008094805011EF1392B3EFC313FFD2B60032
:10004600C2B6000D80E500E4FDEDC394087480940B
:1000560080501AA2B3E433FFC43333335480FCEE2A
:10006600C3134CFED2B600C2B6000D80DCC2B2008D
:0B007600D2B600C2B300D2B300AF0648
:01008100225C
:100A4900E4FD7F8E12099AE4FCECC3940774809448
:100A5900805012EC900B8393FF742A2CF8E6FD1258
:0C0A6900099A0C80E47D807F8E02099ABF
:10000300E4FBEBC39407748094805012EB900B7C59
:0E00130093FF120026742A2BF8A6070B80E438
:0100210022BC
:10008E000203D6E86480F8E933E83360110460F0C7
:10009E00ED33EC337009E8FCE9FDEAFEEBFF2204D8
:1000AE0060DED3EB9FEA9EE99DE8C2E78CF0C2F7D3
:1000BE0095F0400CE8CCF8E9CDF9EACEFAEBCFFB9F
:1000CE001203A185D0F05804700320D5B3E8047054
:1000DE00075002B2D50203E092D5EC0460F7E4CCEF
:1000EE00C0E0C398F8603B94186008400DD0E0FB68
:1000FE000203B8E4FBFAC9FC8028E830E406E4C940
:10010E00FBE4CAFCE830E305E4C9CACBFCE85407BB
:10011E006010F8C3E913F9EA13FAEB13FBEC13FCC6
:10012E00D8F130F52FC3E49CFCEF9BFFEE9AFEED69
:10013E0099FDD0E0FBEF4E4D4C701222DB03020313
:10014E00DDEC2CFCEF33FFEE33FEED33FDED30E74F
:10015E00EB0203B8EF2BFFEE3AFEED39FDD0E0FBDC
:10016E0050130BBB00030203E0ED13FDEE13FEEF85
:08017E0013FFEC13FC0203B8AF
:10018600EC4D6011E8497017ED33EC3304600DE473
:10019600FCFFFEFD22E933E8330470F80203D612B1
:1001A60003A158046009E4CC2481500628500902B2
:1001B60003E02840030203DDC0E0EB4A7044B98047
:1001C60006D0E0FB0203CCEF4E701CBD8008EBFFAF
:1001D600EAFEE9FD80EBE98DF0A4FEE5F002026F90
:1001E600E9CDF9EAFEEBFFEF89F0A4FCE5F0CE8954
:1001F600F0A42EFFE435F0CD89F0A42DFEE435F011
:100206008067EF4E7005BD80D780C3EF8BF0A4AC3E
:10021600F0EE8BF0A42CFCE435F0F8EF8AF0A42C79
:10022600E5F038FCE433CB8DF0A42CFCE5F03BF88C
:10023600EE8AF0A42CFCE5F038F8E433CF89F0A47C
:100246002CFCE5F038CF3400CE89F0A42FFFE5F082
:100256003EFEE433C98DF0A42EFEE5F039CD8AF0DA
:10026600A42FFFE5F03EFEE43DFD33D0E0FB500752
:100276000BBB000F0203E0EC2CFCEF33FFEE33FE6A
:06028600ED33FD0203B898
:10028C000203E0EC5D046005E8590470030203D638
:10029C001203A1580460F6EC4860F2EC7004FDFE09
:1002AC00FF22C860DB2481C85009C3986002500645
:1002BC000203DD9850CAF582E9294B4A7005AB82DE
:1002CC000203CC75F0007C1A7880C3EF9BEE9AED9C
:1002DC0099400DC3EF9BFFEE9AFEED99FDE842F0BD
:1002EC00DC23ACF0D0E0FFD0E0FED0E0FDAB822010
:1002FC00E7101BEB60BAEC2CFCEF33FFEE33FEED9A
:10030C0033FD0203B8E803F830E705C0F075F000E0
:10031C00EF2FFFEE33FEED33FD40B830E7C280AA7D
:10032C0075F020800E75F010800575F0087D007E4C
:10033C00007F003392D530D503120453EC334010B8
:10034C00EF33FFEE33FEED33FDEC33FCD5F0ED2255
:0E035C00E5F0247EA2D513CC92E7CDCEFF2291
:10036A00EDD2E7CD33EC3392D524814006E4FFFE8B
:10037A00FDFC22FCE4CFCECDCC24E0501174FF80EA
:10038A00EDC3CC13CCCD13CDCE13CECF13CF047087
:07039A00F030D5DE02045330
:1003A100E9D2E7C933E833F892D5EDD2E7CD33ECA2
:0703B10033FC5002B2D5221B
:1003B800EC30E7100FBF000C0EBE00080DBD0004A6
:1003C8000BEB6014A2D5EB13FCED92E7FD2274FF52
:1003D800FCFDFEFF22E480F8A2D574FF13FC7D80AB
:0303E800E480EFBF
:03000000020718DC
:0C071800787FE4F6D8FD75813002075FA1
:1003EB00BB010689828A83E0225002E722BBFE0210
:0903FB00E32289828A83E4932243
:10040400E88FF0A4CC8BF0A42CFCE98EF0A42CFC97
:100414008AF0EDA42CFCEA8EF0A4CDA8F08BF0A415
:100424002DCC3825F0FDE98FF0A42CCD35F0FCEB74
:100434008EF0A4FEA9F0EB8FF0A4CFC5F02ECD3939
:0F044400FEE43CFCEAA42DCE35F0FDE43CFC22A6
:0E045300C3E49FFFE49EFEE49DFDE49CFC22BA
:10046100EB9FF5F0EA9E42F0E99D42F0E89C45F0F1
:010471002268
:10072400020472E493A3F8E493A34003F68001F275
:1007340008DFF48029E493A3F85407240CC8C333D6
:10074400C4540F4420C8834004F456800146F6DFA5
:10075400E4800B0102040810204080900B09E47E21
:10076400019360BCA3FF543F30E509541FFEE4939A
:10077400A360010ECF54C025E060A840B8E493A361
:10078400FAE493A3F8E493A3C8C582C8CAC583CA8C
:10079400F0A3C8C582C8CAC583CADFE9DEE780BE44
:010B210000D3
:00000001FF
